:020000020000FC
:1000000000E808B900E001BB0FEF07BB02BB10E03E
:1000100030E038BB20B32117E9F3112321F4222368
:1000200011F00C941600122F0C940A00213039F4B0
:100030003F3011F40C943D0033950C943D00223078
:1000400029F4032F0370301B0C943D00243059F722
:10005000032F0370003041F43C3069F03395339541
:10006000339533950C943D00033029F4333019F067
:1000700034500C943D000C943D0038BB0C9413009C
:040080000395FECF17
:00000001FF
