:100000000C942A000C9477020C9477020C947702DB
:100010000C9477020C9477020C9477020C9477027C
:100020000C9477020C9477020C9477020C9477026C
:100030000C9477020C9477020C9477020C9477025C
:100040000C9477020C9477020C9477020C9477024C
:100050000C94770211241FBECFE5D4E0DEBFCDBFE4
:0C0060000E9447020C943400F894FFCF7B
:10006C0020E030E040E050E060E87EE380E190E0AA
:10007C000E94870120E030E040E050E060E07EE349
:10008C0084E090E00E94870120E030E040E050E006
:10009C0060E07EE384E090E00E94870120E030E0A5
:1000AC0040E050E060E87EE380E190E00E94870150
:1000BC0020E030E040E050E060E07EE384E090E05F
:1000CC000E94870120E030E040E050E060E07EE3F9
:1000DC0084E090E00E94870120E030E040E050E0B6
:1000EC0060E07EE380E190E00E94870120E030E058
:1000FC0040E050E060E07EE388E090E00E94870101
:10010C0020E030E040E050E060E07EE384E090E00E
:10011C000E94870120E030E040E050E060E07EE3A8
:10012C0082E090E00E94870120E030E040E050E067
:10013C0060E07FE381E090E00E94870120E030E006
:10014C0040E050E060E87EE380E290E00E948701AE
:10015C0020E030E040E050E060E07EE380E490E0BE
:10016C000E94870120E030E040E050E060E07EE358
:10017C0080E290E00E94870120E030E040E050E017
:10018C0060E87EE380E190E00E94870120E030E0AF
:10019C0040E050E060E07EE384E090E00E94870164
:1001AC0020E030E040E050E060E07EE384E090E06E
:1001BC000E94870120E030E040E050E060E07EE308
:1001CC0080E190E00E94870120E030E040E050E0C8
:1001DC0060E07EE388E090E00E94870120E030E060
:1001EC0040E050E060E07EE384E090E00E94870114
:1001FC0020E030E040E050E060E07EE382E090E020
:10020C000E94870120E030E040E050E060E07FE3B6
:10021C0081E090E00E94870120E030E040E050E077
:0E022C0060E87FE380E090E00E948701089583
:10023A000FC00E945C0238F00E94630220F09523EE
:10024A0011F00C946A020C94740211240C94560254
:10025A000E94050270F3959FC1F3950F50E0551F58
:10026A00629FF001729FBB27F00DB11D639FAA2701
:10027A00F00DB11DAA1F649F6627B00DA11D661F50
:10028A00829F2227B00DA11D621F739FB00DA11D71
:10029A00621F839FA00D611D221F749F3327A00D2B
:1002AA00611D231F849F600D211D822F762F6A2FC7
:1002BA0011249F5750409AF0F1F088234AF0EE0F2C
:1002CA00FF1FBB1F661F771F881F91505040A9F759
:1002DA009E3F510580F00C946A020C9456025F3FCF
:1002EA00E4F3983ED4F3869577956795B795F79595
:1002FA00E7959F5FC1F7FE2B880F911D969587950D
:04030A0097F90895C2
:10030E008F929F92AF92BF92CF92DF92EF92FF9217
:10031E006A017B0188BB232B71F020E030E04AE7B5
:10032E0055E4C701B6010E9470020E944E02CB0135
:10033E000E9438022BC02DEC3CEC4CE45FE3C7016D
:10034E00B6010E94700220E030E04AE755E40E94B8
:10035E0070020E944E024B015C012DEC3CEC4CE411
:10036E005EE3C701B6010E94700220E030E04AE76A
:10037E0055E40E9470020E944E026B017C01C40182
:10038E000E94380218BAC6010E943802FF90EF9000
:0E039E00DF90CF90BF90AF909F908F9008950A
:1003AC000E940D0288F09F5798F0B92F9927B751EA
:1003BC00B0F0E1F0660F771F881F991F1AF0BA95FD
:1003CC00C9F714C0B13091F00E945502B1E0089504
:1003DC000C945502672F782F8827B85F39F0B93FF6
:1003EC00CCF3869577956795B395D9F73EF49095B0
:0E03FC008095709561957F4F8F4F9F4F0895AC
:10040A0057FD9058440F551F59F05F3F71F04795BB
:10041A00880F97FB991F61F09F3F79F087950895A0
:10042A00121613061406551FF2CF4695F1DF08C0BF
:10043A00161617061806991FF1CF869571056105DC
:04044A000894089575
:10044E00092E0394000C11F4882352F0BB0F40F4D4
:10045E00BF2B11F460FF04C06F5F7F4F8F4F9F4F14
:02046E000895EF
:1004700020E030E008C0E9EFF0E03197F1F700C08C
:0E04800000002F5F3F4F28173907ACF3089597
:0E048E008FEF87BB12BA18BA0E943600FDCF5E
:0E049C000E94D6016894B1110C945602089586
:0E04AA00E894BB2766277727CB0197F90895C2
:0E04B80000240A941616170618060906089561
:0E04C60000240A941216130614060506089563
:0C04D40097F99F6780E870E060E00895F1
:0804E0000E941D010C9427028B
:0604E8009FEF80EC089577
:0404EE000C9400006A
:00000001FF
