:100000000C942A000C9434000C9434000C943400AA
:100010000C9434000C9434000C9434000C94340090
:100020000C9434000C9434000C9434000C94340080
:100030000C9434000C9434000C9434000C94340070
:100040000C9434000C9434000C9434000C94340060
:100050000C94340011241FBECFE5D4E0DEBFCDBF29
:100060000E94F3000C94CA010C9400000F931F939C
:10007000CF93DF93EC01181619065CF400E010E052
:1000800081E090E00E9436000F5F1F4F0C171D07A4
:10009000BCF3DF91CF911F910F9108951F93382FDB
:1000A000CB01BA01122F38BB0E947001DC01CB01D9
:1000B0000E943600111118BA1F91089580E490E053
:1000C00040E050E068E474E421E00E944E0080E1EA
:1000D00090E040E050E068EC73E421E00E944E00C4
:1000E00080E490E040E050E068EC73E421E00E949E
:1000F0004E0080E290E040E050E068EC73E421E0E4
:100100000E944E0080E490E040E050E068EC73E430
:1001100021E00E944E0080E190E040E050E068EC79
:1001200073E421E00E944E0088E090E040E050E05F
:1001300068EC73E421E00E944E0080E190E040E032
:1001400050E068E474E420E00E944E0088E090E013
:1001500040E050E068E474E421E00E944E0081E059
:1001600090E040E050E068EC74E421E00E944E0032
:1001700088E090E040E050E068E474E420E00E9411
:100180004E0081E090E040E050E068E474E421E05B
:100190000E944E0084E090E040E050E068E474E4A7
:1001A00021E00E944E0081E090E040E050E068ECE9
:1001B00073E421E00E944E0084E090E040E050E0D3
:1001C00068EC73E421E00E944E0082E090E040E0A1
:1001D00050E066E175E421E00E944E0080E293E089
:1001E0000E94360008958FEF87BB12BA18BA81E0DB
:1001F00090E040E050E068E474E420E00E944E00AB
:1002000082E090E040E050E068EC73E421E00E947E
:100210004E0084E090E040E050E068EC73E421E0C0
:100220000E944E0081E090E040E050E068E474E419
:1002300021E00E944E0088E090E040E050E068EC51
:1002400073E421E00E944E0084E090E040E050E042
:1002500068EC73E421E00E944E0081E090E040E011
:1002600050E066E175E421E00E944E0080E293E0F8
:100270000E94360080E190E040E050E068EC74E4D9
:1002800020E00E944E0080E190E040E050E068E411
:1002900074E421E00E944E0080E290E040E050E0F3
:1002A00068EC73E421E00E944E0080E190E040E0C1
:1002B00050E068EC73E421E00E944E0080E490E09E
:1002C00040E050E066E175E421E00E944E0080E2EB
:1002D00093E00E9436000E945E000E945E0087CF7D
:1002E00004D06894B11150C0089533D088F09F575E
:1002F00090F0B92F9927B751A0F0D1F0660F771F72
:10030000881F991F1AF0BA95C9F712C0B13081F051
:100310003AD0B1E0089537C0672F782F8827B85FAB
:1003200039F0B93FCCF3869577956795B395D9F7B2
:100330003EF490958095709561957F4F8F4F9F4FBC
:10034000089557FD9058440F551F59F05F3F71F0C5
:100350004795880F97FB991F61F09F3F79F087952C
:100360000895121613061406551FF2CF4695F1DFB5
:1003700008C0161617061806991FF1CF8695710545
:10038000610508940895E894BB2766277727CB0179
:0803900097F90895F894FFCFDE
:00000001FF
