:100000000C942A000C9434000C9434000C943400AA
:100010000C9434000C9434000C9434000C94340090
:100020000C9434000C9434000C9434000C94340080
:100030000C9434000C9434000C9434000C94340070
:100040000C9434000C9434000C9434000C94340060
:100050000C94340011241FBECFE5D4E0DEBFCDBF29
:100060000E94A6010C94BD010C94000012BE68BB56
:1000700024E630E0829FA001839F500D929F500D97
:10008000112482B790E0841795073CF482B78F3F24
:10009000C1F74050514012BEF4CF18BA089584E021
:1000A00090E061E070E00E94360081E090E060E066
:1000B00070E00E94360084E090E061E070E00E9411
:1000C000360081E090E060E070E00E94360084E05D
:1000D00090E062E070E00E94360081E090E060E035
:1000E00070E00E94360084E090E062E070E00E94E0
:1000F000360081E090E060E070E00E94360084E02D
:1001000090E062E070E00E94360081E090E060E004
:1001100070E00E94360084E090E062E070E00E94AF
:10012000360081E090E060E070E00E94360084E0FC
:1001300090E064E070E00E94360081E090E060E0D2
:1001400070E00E94360084E090E061E070E00E9480
:10015000360081E090E060E070E00E94360084E0CC
:1001600090E061E070E00E94360081E090E060E0A5
:1001700070E00E94360084E090E061E070E00E9450
:10018000360081E090E060E070E00E94360084E09C
:1001900090E062E070E00E94360081E090E060E074
:1001A00070E00E94360084E090E062E070E00E941F
:1001B000360081E090E060E070E00E94360084E06C
:1001C00090E062E070E00E94360081E090E060E044
:1001D00070E00E94360084E090E062E070E00E94EF
:1001E000360081E090E060E070E00E94360088E038
:1001F00090E064E070E00E94360084E090E068E007
:1002000070E00E94360081E090E060E070E00E94C3
:10021000360084E090E064E070E00E94360081E007
:1002200090E060E070E00E94360084E090E060E1E1
:1002300070E00E94360081E090E060E070E00E9493
:10024000360084E090E060E170E00E94360081E0DA
:1002500090E060E070E00E94360084E090E060E1B1
:1002600070E00E94360081E090E060E070E00E9463
:10027000360084E090E060E170E00E94360081E0AA
:1002800090E060E070E00E94360084E090E064E07E
:1002900070E00E94360081E090E060E070E00E9433
:1002A000360084E090E064E070E00E94360081E077
:1002B00090E060E070E00E94360084E090E068E04A
:1002C00070E00E94360081E090E060E070E00E9403
:1002D000360084E090E064E070E00E94360081E047
:1002E00090E060E070E00E94360088E090E060E11D
:1002F00070E00E94360081E090E060E070E00E94D3
:10030000360084E090E060E170E00E94360081E019
:1003100090E060E070E00E94360084E090E060E1F0
:1003200070E00E94360081E090E060E070E00E94A2
:10033000360088E090E061E070E00E94360088E0DE
:1003400090E060E070E00E943600089511BA8FEFEF
:1003500087BB82BB85E083BF87E881BF80B38130E4
:1003600019F40E944F00FACF80B38230B9F70E948F
:0E0370004F0080B38430D9F7F1CFF894FFCF5F
:00000001FF
